:020000040800F2
:100000007067002049010008A52C0008A72C0008F3
:10001000AB2C0008AF2C0008B32C00080000000037
:10002000000000000000000000000000B72C0008E5
:10003000B92C000800000000BB2C0008BD2C0008F3
:100040006301000863010008630100086301000800
:1000500063010008630100086301000863010008F0
:100060006301000863010008630100085F2B0008BA
:1000700063010008630100086301000863010008D0
:1000800063010008630100086301000863010008C0
:1000900063010008630100086301000863010008B0
:1000A00063010008630100086301000863010008A0
:1000B000BF2C000863010008630100086301000809
:1000C0006301000863010008630100086301000880
:1000D0006301000863010008630100086301000870
:1000E0006301000863010008630100086301000860
:1000F0006301000863010008630100086301000850
:10010000630100086301000863010008630100083F
:10011000630100086301000863010008630100082F
:10012000630100086301000863010008630100081F
:10013000DFF810D004F010FF0048004775290008D0
:10014000AFF30080706700200648804706480047EC
:10015000FEE7FEE7FEE7FEE7FEE7FEE7FEE7FEE777
:10016000FEE7FEE74B020008310100080CB5002055
:10017000019000906C48006840F480306A49086043
:1001800000BF6948006800F4003000900198401CEE
:100190000190009818B90198B0F5A06FF1D16248AC
:1001A000006800F4003010B10120009001E0002050
:1001B00000900098012843D15C48006840F010008E
:1001C0005A4908600846006820F0030008600846A5
:1001D000006840F002000860534840685249486097
:1001E0000846406848600846406840F480604860BF
:1001F0000846406820F47C1048600846406840F497
:10020000E81048600846006840F08070086000BF51
:100210004548006800F000700028F9D04248406866
:1002200020F00300404948600846406840F0020062
:10023000486000BF3C48406800F00C000828F9D135
:100240000CBD10B5FFF792FF10BD10B53648006821
:1002500040F00100344908600846406834490840CD
:100260003149486008460068324908402E49086014
:100270000846006820F4802008600846406820F4A2
:10028000FE0048604FF41F008860FFF7DAFF4FF070
:1002900000602949086010BD10B50021002000222F
:1002A000214B5B6803F00C0121B1042906D0082919
:1002B00028D107E0214B224C236027E01F4B204C24
:1002C000236023E0184B5B6803F47010164B5B68E7
:1002D00003F48032022303EB904022B9194B4343CD
:1002E000174C23600DE0104B5B6803F4003323B11F
:1002F000144B4343124C236003E0104B4343104C18
:10030000236003E00D4B0E4C236000BF00BF064B83
:100310005B68C3F303130C4CE15C094B1B68CB40D7
:10032000074C236010BD0000001002400020024076
:100330000000FFF8FFFFF6FE08ED00E000127A0073
:100340000000002000093D00040000203149014365
:10035000314A1160704770B5002100230F22C47824
:1003600004B32D4C246804F4E064C4F5E064210A6D
:10037000C1F10403CA40447804FA03F184781440BC
:1003800021430901254C0678A155047804F01F0586
:100390000124AC4005786D11AD0005F1E025C5F8EC
:1003A000004109E0047804F01F050124AC401C4D15
:1003B0000678761145F8264070BD1A4A0A40024375
:1003C000154B1B1F1A60704739B1134A121D126872
:1003D0000243114B1B1D1A6006E00F4A121D1268E2
:1003E00082430D4B1B1D1A607047042808D14FF043
:1003F000E021096941F004014FF0E022116107E0BA
:100400004FF0E021096921F004014FF0E022116171
:10041000704700000000FA050CED00E000E400E089
:1004200080E100E080FFFF1F10B50446CC48844205
:1004300008D10121042000F02DFB0021042000F050
:1004400029FB46E0C748844208D10121082000F07A
:1004500021FB0021082000F01DFB3AE0C248844245
:1004600008D10121102000F015FB0021102000F020
:1004700011FB2EE0BD48844208D10121202000F06C
:1004800009FB0021202000F005FB22E0B84884424F
:1004900008D10121402000F0FDFA0021402000F0A9
:1004A000F9FA16E0B348844208D10121802000F017
:1004B000F1FA0021802000F0EDFA0AE0AE48844213
:1004C00007D10121801500F0E5FA0021A01500F008
:1004D000E1FA10BD10B50121084600F0DBFA002159
:1004E000012000F0D7FA10BD2DE9F04102460025A9
:1004F0000026002000230024002791F803C00CF000
:100500000F0591F803C00CF0100CBCF1000F03D0E4
:1005100091F802C04CEA050591F800C0BCF1000F4B
:1005200031D0146800202BE04FF0010C0CFA00F3DE
:10053000B1F800C00CEA03069E4220D183004FF0C0
:100540000F0C0CFA03F7BC4305FA03FC4CEA040455
:1005500091F803C0BCF1280F06D14FF0010C0CFA42
:1005600000FCC2F814C00AE091F803C0BCF1480FC7
:1005700005D14FF0010C0CFA00FCC2F810C0401C71
:100580000828D1D31460B1F800C0BCF1FF0F34DDEE
:10059000546800202EE000F1080C4FF0010808FA22
:1005A0000CF3B1F800C00CEA03069E4221D183008F
:1005B0004FF00F0C0CFA03F7BC4305FA03FC4CEAAE
:1005C000040491F803C0BCF1280F05D100F1080C18
:1005D00008FA0CF8C2F8148091F803C0BCF1480F77
:1005E00007D100F1080C4FF0010808FA0CF8C2F826
:1005F0001080401C0828CED35460BDE8F0814FF62F
:10060000FF710180022181700421C1707047024690
:10061000002093680B400BB1012000E000207047E0
:100620000146886880B2704702460020D3680B40BC
:100630000BB1012000E0002070470146C86880B27D
:10064000704701617047416170470AB1016100E084
:1006500041617047C16070474FF480320A43826144
:100660008161826182698269704702460020434B42
:1006700018684FF68073184040EA021008433F4B59
:10068000186070473E49C8617047F0B50A460023BC
:1006900000240021002500F00046B6F1004F02D1F1
:1006A000364EF16901E0354E7168C0F3034583B2FF
:1006B00000F44016B6F5401F08D121F070612F4EAE
:1006C000766826F070662D4F7E6012E000F480168A
:1006D000B6F5801F06D1032606FA05F4A14341F0C2
:1006E000706106E0460D360103FA06F6B14341F0AB
:1006F000706122B1460D360103FA06F6314300F06F
:100700000046B6F1004F02D11C4EF16101E01B4ED4
:100710007160F0BD30B500228B071C0F0F2303FA68
:1007200004F2164B08338C1053F824309343134CC7
:1007300008348D1044F8253023468C1053F82430AB
:100740008C07240F00FA04F423430C4C08348D105A
:1007500044F8253030BD0A49DC310860704700009C
:1007600000080140000C014000100140001401404D
:1007700000180140001C0140002001400000014021
:1007800000002042DF48006840F00100DD490860B9
:1007900008464068DC490840DA4948600846006875
:1007A000DA490840D74908600846006820F48020EC
:1007B00008600846406820F4FE0048604FF41F00BF
:1007C00088607047CF49096821F48031CD4A1160B3
:1007D0001146096821F480211160B0F5803F03D0F3
:1007E000B0F5802F0ED106E0C649096841F480318A
:1007F000C44A116007E0C349096841F4A021C14A15
:10080000116000E000BF00BF704710B50146002234
:10081000002300204A11012A02D1BA4C236806E0C5
:10082000022A02D1B74C236A01E0B64C636A01F098
:100830001F02012494401C400CB1012000E0002064
:1008400010BD38B5002000900024002500BF3120E5
:10085000FFF7DBFF05460098401C00900098B0F5BC
:10086000A06F01D0002DF2D03120FFF7CEFF08B1EC
:10087000012400E00024204638BD01460020A14AA2
:10088000106820F0F80040EAC10010607047A049ED
:1008900008607047024600209A4B586820F47C108C
:1008A00042EA01031843974B58607047984908661D
:1008B000704701460020934A506820F00300084327
:1008C000506070478F48406800F00C007047014648
:1008D00000208C4A506820F0F000084350607047B8
:1008E00001460020874A506820F4E06008435060C9
:1008F000704701460020834A506820F4605040EA67
:10090000C1005060704729B17E4A527A02437D4B44
:100910005A7204E07B4A527A82437A4B5A72704789
:100920007B49D8310860704701460020754A5068FD
:1009300020F440400843506070470021714A203243
:100940001170704A82F82010012802D004280AD1C0
:1009500004E001216B4A2032117005E00521694A4B
:100960002032117000E000BF00BF70476949086085
:1009700070476449096A0143624A116270476549D8
:1009800044390860704730B500210022002400235C
:100990005C4D6D6805F00C0121B1042905D00829D2
:1009A00023D105E05C4D056022E05B4D05601FE052
:1009B000544D6D6805F47012524D6D6805F4803425
:1009C000022505EB92421CB9544D554305600BE0DE
:1009D0004C4D6D6805F400351DB1504D5543056013
:1009E00002E04D4D5543056002E04B4D056000BFF0
:1009F00000BF444D6D6805F0F0010909484D6B5C7E
:100A00000568DD4045603F4D6D6805F4E061090A09
:100A1000434D6B5C4568DD4085603A4D6D6805F47B
:100A20006051C90A3E4D6B5C4568DD40C560354D7F
:100A30006D6805F44041890B3A4D6B5CC568B5FBA8
:100A4000F3F5056130BD29B12E4A526902432D4BA1
:100A50005A6104E02B4A526982432A4B5A6170471B
:100A600029B1284A92690243264B9A6104E0254A3B
:100A700092698243234B9A61704729B1214AD26916
:100A80000243204BDA6104E01E4AD26982431D4BC7
:100A9000DA61704729B11B4AD2680243194BDA6008
:100AA00004E0184AD2688243164BDA60704729B1D5
:100AB000144A12690243134B1A6104E0114A126985
:100AC0008243104B1A6170471249403908607047E1
:100AD0000F49C86470470B49C87170470948406A9C
:100AE00040F0807007494862704701460020054A7F
:100AF00092680A400AB1012000E0002070470149D5
:100B000088727047001002400000FFF8FFFFF6FEF9
:100B1000000042428004424200127A0000093D0077
:100B2000140000202400002010B50446BE48844272
:100B300008D101218014FFF7ADFF0021A014FFF7B9
:100B4000A9FF16E0B948844208D101210014FFF73B
:100B5000AEFF00212014FFF7AAFF0AE0B448844248
:100B600007D10121C013FFF7A2FF0021E013FFF717
:100B70009EFF10BD10B50022028802F441520B887E
:100B80004C8823438C882343CC8823430C892343FC
:100B90004C8923438C892343CC8923431A43028005
:100BA000838B4FF2FF74234083830B8A038210BD33
:100BB0002DE9F04F85B005460C464FF0000902279D
:100BC0004FF000084FF0010B0026B246A88B4FF201
:100BD00040010840A88302202884B5F81C90A06832
:100BE000022801D100BF38E0A08810B94FF0010BF6
:100BF00001E04FF0020B8D48854200D100E000BFBC
:100C00006846FFF7C0FEDDF800A0E088B0F5007F81
:100C10000AD14FEA1A2000EB80004000A168B0FB27
:100C2000F1F0401D86B20BE04FEA4B10BAFBF0F03A
:100C300000EB80004000A168B0FBF1F0401D86B2DF
:100C40000A20B6FBF0F606F00108A6EB0800C0F398
:100C50004F074FF6FF7000EA0828022F01DBFF2F35
:100C600002DD02274FF00008E08840EA0800384320
:100C70002884A088A1890843618808432188084303
:100C800040F4006040EA0909A5F81C9005B0BDE8F1
:100C9000F08F0021018041808180C18001814181EC
:100CA0008181C1810721018270470021018041803B
:100CB0008180C1800221816000218181704721B142
:100CC000028842F04002028004E002884FF6BF73BF
:100CD0001A400280704721B1828B42F48062828385
:100CE00004E0828B4FF6FF331A408283704730B5A1
:100CF000002400230C110125A540ABB21AB1858850
:100D00001D43858002E085889D43858030BD1AB1F2
:100D100083880B43838002E083888B438380704702
:100D2000818170470146888970474FF6FF62914282
:100D300004D0028842F48072028004E002884FF6F8
:100D4000FF631A400280704721B1828842F004029A
:100D5000828004E082884FF6FB731A4082807047DD
:100D600002884FF2FF731A40028002880A43028011
:100D70007047018841F480510180704721B1028899
:100D800042F40052028004E002884DF6FF731A40DC
:100D90000280704702460020012901D0108B00E03C
:100DA000908A70470146088A7047B1F5804F04D198
:100DB000028842F48042028004E002884BF6FF730E
:100DC0001A40028070470246002013890B400BB185
:100DD000012000E000207047CA4302817047F0B54F
:100DE0000246002000240023002501F00F07012601
:100DF000BE40B4B20B1101269E40B3B2968806EAFB
:100E000003051689264016B10DB1012000E000202F
:100E1000F0BD10B5002201F00F040123A3409AB2E7
:100E2000D343038110BD0000003001400038004072
:100E3000003C004010B50446FE48844208D1012120
:100E4000C014FFF727FE0021E014FFF723FEC4E0E3
:100E5000B4F1804F08D101210846FFF728FE002198
:100E60000120FFF724FEB8E0F348844208D10121B5
:100E70000220FFF71CFE00210220FFF718FEACE065
:100E8000EE48844208D101210420FFF710FE002122
:100E90000420FFF70CFEA0E0E948844208D10121BC
:100EA0000820FFF704FE00210820FFF700FE94E071
:100EB000E448844208D101211020FFF7F8FD002109
:100EC0001020FFF7F4FD88E0DF48844208D10121BB
:100ED0002020FFF7ECFD00212020FFF7E8FD7CE05B
:100EE000DA48844208D101214014FFF7D3FD0021E4
:100EF0006014FFF7CFFD70E0D548844209D101218D
:100F0000C804FFF7C7FD00214FF40020FFF7C2FD22
:100F100063E0D048844209D101210805FFF7BAFDFA
:100F200000214FF48010FFF7B5FD56E0CA48844217
:100F300009D101214805FFF7ADFD00214FF4001054
:100F4000FFF7A8FD49E0C548844208D101214020AF
:100F5000FFF7ADFD00214020FFF7A9FD3DE0C048AF
:100F6000844208D101218020FFF7A1FD00218020CB
:100F7000FFF79DFD31E0BB48844208D10121801577
:100F8000FFF795FD0021A015FFF791FD25E0B6487C
:100F9000844209D101210804FFF77CFD00214FF4B0
:100FA0008030FFF777FD18E0B048844209D1012175
:100FB0004804FFF76FFD00214FF40030FFF76AFD92
:100FC0000BE0AB48844208D101218804FFF762FDA1
:100FD00000214FF48020FFF75DFD10BD0022028844
:100FE000944B98420ED0994B98420BD0B0F1804F61
:100FF00008D0914B984205D0904B984202D0904B2C
:10100000984204D14FF68F731A404B881A438D4B88
:10101000984207D08C4B984204D04FF6FF431A40B9
:10102000CB881A4302808B8883850B880385814B8C
:1010300098420BD0854B984208D08B4B984205D0F4
:101040008A4B984202D08A4B984201D10B7A038690
:1010500001238382704770B5002400220023058C91
:101060004FF6FE7635400584028C8388048B4FF65C
:101070008F752C40B51E2C400D882C43751E2A40C0
:101080000D892A434D882A436A4DA8420BD06F4DE3
:10109000A84208D0744DA84205D0744DA84202D091
:1010A000734DA84213D14FF6F7752A404D892A4354
:1010B0004FF6FB752A408D882A434FF6FF652B407B
:1010C0004FF6FF552B408D892B43CD892B438380D1
:1010D0000483CD888586028470BD70B5002400220B
:1010E0000023058C4FF6EF7635400584028C83880B
:1010F000048B48F6FF752C404FF6FF452C400D88B9
:101100004FF6FF7606EA05252C434FF6DF752A4099
:101110000D8906EA05152A434D8806EA05152A4376
:10112000444DA84202D0494DA8421DD14FF67F75CB
:101130002A404D894FF6FF7606EA05152A434FF6F9
:10114000BF752A408D8806EA05152A434FF6FF35FC
:101150002B404FF2FF752B408D8906EA85052B4306
:10116000CD8906EA85052B4383800483CD880587D6
:10117000028470BD70B5002400220023058C4FF658
:10118000FF6635400584028C8388848B4FF68F750B
:101190002C404FF6FC752C400D882C434FF6FF5524
:1011A0002A400D894FF6FF7606EA05252A434D8829
:1011B00006EA05252A431F4DA84202D0234DA84226
:1011C0001DD14FF2FF752A404D894FF6FF7606EA92
:1011D00005252A434FF6FF352A408D8806EA052566
:1011E0002A434EF6FF752B404DF6FF752B408D8937
:1011F00006EA05152B43CD8906EA05152B438380A6
:101200008483CD888587028470BD70B50022002359
:101210000024058C4EF6FF7635400584038C8488C7
:10122000828B48F6FF752A404FF6FF452A400D880D
:1012300020E00000002C01400004004000080040B5
:10124000000C004000100040001400400034014039
:10125000004C014000500140005401400018004083
:10126000001C0040002000400040014000440140BC
:10127000004801404FF6FF7606EA05252A434DF661
:10128000FF752B400D8906EA05352B434D8806EA8C
:1012900005352B43FA4DA84202D0FA4DA84208D199
:1012A0004BF6FF752C408D894FF6FF7606EA8515C3
:1012B0002C4384808283CD88A0F84050038470BD85
:1012C000828B4FF2FF331A408283828B4FF6FF737B
:1012D00003EA01231A4382837047F0B50C46154692
:1012E000002200210026078C4EF6FF7C07EA0C073F
:1012F0000784828B018C4FF6FF7707EA043640F6AD
:10130000FF473A404FF6FF7707EA05273A434FF683
:10131000FF7707EA03373A43D94FB8420ED0D94F87
:10132000B8420BD0B0F1804F08D0D74FB84205D0AB
:10133000D64FB84202D0D64FB84206D14DF6FF770D
:10134000394046F48057394305E047F6FF573940A6
:1013500044F48057394382830184F0BD828B4FF679
:10136000F3731A408283828B0A4382837047F0B5FD
:101370000C461546002200210026078C4FF6FF6C14
:1013800007EA0C070784828B018C4FF6FF7707EA88
:1013900004264FF60C773A404FF6FF7707EA03171B
:1013A0002F433A43B64FB8420ED0B64FB8420BD097
:1013B000B0F1804F08D0B44FB84205D0B34FB84217
:1013C00002D0B34FB84206D14FF6FF57394046F42A
:1013D0008077394305E04FF2FF57394044F4807776
:1013E000394382830184F0BD028B4FF2FF331A40F0
:1013F0000283028B4FF6FF7303EA01231A43028331
:101400007047F0B50C461546002200210026078CD7
:101410004FF6EF7C07EA0C070784028B018C4FF62E
:10142000FF7707EA041640F6FF473A404FF6FF778A
:1014300007EA03373A434FF6FF7707EA05273A43AF
:101440008F4FB8420ED08F4FB8420BD0B0F1804FC3
:1014500008D08D4FB84205D08C4FB84202D08C4F87
:10146000B84206D14FF6DF77394046F010073943CE
:1014700005E04FF65F77394044F0100739430283A7
:101480000184F0BD028B4FF6F3731A400283028B86
:101490000A4302837047F0B50C461546002200212E
:1014A000068C4FF6FE773E400684028B018C4FF689
:1014B0000C7632407E1C06EA03162E433243704EF1
:1014C000B0420ED06F4EB0420BD0B0F1804F08D07A
:1014D0006D4EB04205D06D4EB04202D06C4EB0425F
:1014E00006D14FF6FD76314044F00106314305E068
:1014F0004FF6F576314044F0010631430283018412
:10150000F0BD70B505460C465D4885420ED05D487D
:1015100085420BD0B5F1804F08D05B48854205D09D
:101520005A48854202D05A48854200D100E000BFA7
:10153000208850B92389A28861882846FFF7ABFF2D
:10154000E1882846FFF79EFF25E0208804280AD17D
:101550002389A28861882846FFF753FFE18828463F
:10156000FFF742FF17E0208808280AD12389A288C4
:1015700061882846FFF7FBFEE1882846FFF7EEFE6C
:1015800009E02389A28861882846FFF7A6FEE18842
:101590002846FFF795FE70BD2DE9F04105460C4643
:1015A00000260127608808B9022600E00026A088EE
:1015B000012801D1022700E001272088A0B9238952
:1015C000A28861882846FFF766FFE1882846FFF772
:1015D00059FF23893A4631462846FFF712FFE18832
:1015E0002846FFF701FF13E02389A2886188284677
:1015F000FFF707FFE1882846FFF7F6FE23893A4602
:1016000031462846FFF747FFE1882846FFF73AFFB3
:10161000BDE8F0810A884B881A438B881A43CB882F
:101620001A430B891A434B891A438B891A43A0F832
:10163000442070474FF6FF71818000210180C180F6
:101640004180017270470021018041808180C1800A
:10165000018141818181C1817047002101804180E8
:10166000012181800021C18001817047002101801A
:1016700041808180C180018141818181704700006A
:10168000002C0140003401400004004000080040EC
:10169000000C004021B1028842F00102028004E007
:1016A00002884FF6FE731A400280704731B1B0F8DD
:1016B000442042F40042A0F8442005E0B0F8442061
:1016C000C2F30E02A0F8442070471AB183890B437D
:1016D000838102E083898B438381704781827047D5
:1016E00041EA0203A0F8483070471AB183890B43DE
:1016F000838102E083898B438381704701894FF6A0
:10170000F8721140018170470A46002101894FF6A5
:101710008F73194011430181704730B504460D465F
:1017200029462046FFF7F0FF208940F0070020817E
:1017300030BD2DE9F04104460D4616461F46602D8A
:1017400006D13B46012231462046FFF75AFE05E00E
:101750003B46012231462046FFF79DFE29462046A2
:10176000FFF7D2FF208940F007002081BDE8F0811B
:1017700030B50C4600210189C9B24FF6FF7505EA64
:101780000325154325432943018130BD2DE9F0414F
:1017900005460E4617469846002443463A463146CB
:1017A0002846FFF7E5FF2C894FF6F870044044F017
:1017B00007044FF68F70044044F070042C81BDE89C
:1017C000F081F0B504460D4616461F463B463246AC
:1017D00029462046FFF7CCFF208940F48040208135
:1017E000F0BD0185828270470A46002101884FF6CC
:1017F0008F731940114301807047F0B50C461546B0
:101800001E460021002200230189028B038C4FF623
:10181000F877394021434FF6FC473A4040F2011730
:101820003A434FF6DD773B404FF6FF7707EA06175E
:101830002F433B43018102830384F0BD0A4600210C
:10184000018B4FF68F7319401143018370470A468D
:101850000021018B48F6FF7319404FF6FF7303EA2E
:1018600002231943018370470A460021818B4FF6FA
:101870008F7319401143818370470A460021818B81
:1018800048F6FF7319404FF6FF7303EA022319432A
:101890008183704721B1028842F08002028004E017
:1018A00002884FF67F731A400280704721B1828808
:1018B00042F00402828004E082884FF6FB731A40F3
:1018C0008280704721B1828842F00802828004E061
:1018D00082884FF6F7731A408280704721B1828860
:1018E00042F00102828004E082884FF6FE731A40C3
:1018F000828070470A460021018B4FF6F77319402A
:101900001143018370470A460021018B4FF2FF7398
:1019100019404FF6FF7303EA02231943018370470E
:101920000A460021818B4FF6F773194011438183DA
:1019300070470A460021818B4FF2FF7319404FF622
:10194000FF7303EA02231943818370470A4600218B
:10195000018B4FF6FB7319401143018370470A4610
:101960000021018B4FF6FF3319404FF6FF7303EA56
:1019700002231943018370470A460021818B4FF6E9
:10198000FB7319401143818370470A460021818B04
:101990004FF6FF3319404FF6FF7303EA0223194352
:1019A000818370470A460021018B4FF67F731940EF
:1019B0001143018370470A460021018BC1F30E01D8
:1019C0004FF6FF7303EA02231943018370470A4667
:1019D0000021818B4FF67F7319401143818370473B
:1019E0000A460021818BC1F30E014FF6FF7303EA13
:1019F00002231943818370470A460021018C4FF668
:101A0000FD7319401143018470470A460021018C7F
:101A10004FF6F77319401143018470470A460021BD
:101A2000018C4FF6DF7319404FF6FF7303EA021380
:101A30001943018470470A460021018C4FF67F73D9
:101A400019404FF6FF7303EA0213194301847047EC
:101A50000A460021018C4FF6FF5319404FF6FF73E1
:101A600003EA02231943018470470A460021018CCE
:101A70004FF2FF7319404FF6FF7303EA0223194335
:101A8000018470470A460021018C4DF6FF7319400E
:101A90004FF6FF7303EA023319430184704730B5F0
:101AA000002301248C40A3B2048C9C430484048C46
:101AB00002FA01F5ADB22C43048430BD30B50023E9
:101AC00004248C40A3B2048C9C430484048C02FA4A
:101AD00001F5ADB22C43048430BD70B5034600203F
:101AE00000241846183001258D40ACB21D8CA5434A
:101AF0001D8409B1082909D100EB6100056825F0B2
:101B0000700505600568154305600EE00D1FC5F3FF
:101B10004E052844056825F4E045056005684FF644
:101B2000FF7606EA02263543056070BD21B10288C2
:101B300042F00202028004E002884FF6FD731A4070
:101B40000280704721B1028842F00402028004E062
:101B500002884FF6FB731A400280704721B18288D9
:101B600042F08002828004E082884FF67F731A4040
:101B70008280704702884FF6F7731A40028002880D
:101B80000A430280704782884FF68F731A40828022
:101B900082880A438280704702894FF6F8731A40A0
:101BA000028102890A430281704702894FF67F73DE
:101BB0001A40028102890A4302817047818470477A
:101BC000818570478186704701877047818770479C
:101BD000A0F84010704702884FF6FF431A40028079
:101BE00002880A43028070470146888E704701468A
:101BF000088F70470146888F70470146B1F8400052
:101C000070470146888C70470146088D7047024630
:101C10000020138A0B400BB1012000E00020704728
:101C2000CA430282704730B50246002000230024D8
:101C3000158A05EA0103958905EA010413B10CB17F
:101C4000012000E0002030BDCA430282704700003E
:101C500010B50446FB48844209D101218803FEF7F0
:101C600019FF00214FF48040FEF714FF32E0F648E0
:101C7000844209D101214804FEF719FF00214FF4E5
:101C80000030FEF714FF25E0F048844209D101211D
:101C90008804FEF70CFF00214FF48020FEF707FFB9
:101CA00018E0EB48844209D10121C804FEF7FFFE89
:101CB00000214FF40020FEF7FAFE0BE0E5488442D5
:101CC00008D101210805FEF7F2FE00214FF4801033
:101CD000FEF7EDFE10BD2DE9F04786B005460E4635
:101CE0000024A24600BFA1460027B08900B100BF72
:101CF0002F462C8A4CF6FF700440F08804432C8257
:101D0000AC894EF6F3100440B088318908437189DC
:101D100008430443AC81AC8A4FF6FF400440B089CD
:101D20000443AC8201A8FEF72EFEC648874202D1CA
:101D3000DDF810A001E0DDF80CA0A88900F4004057
:101D400040B10AEBCA0000EB0A1031684900B0FB51
:101D5000F1F807E00AEBCA0000EB0A1031688900CD
:101D6000B0FBF1F86420B8FBF0F004012009642115
:101D700001FB1089A88900F4004040B1322000EB3B
:101D8000C900B0FBF1F000F00700044308E0322086
:101D900000EB09106421B0FBF1F000F00F000443E8
:101DA0002C8106B0BDE8F0874FF416510160002188
:101DB0008180C18001810C21418100218181704796
:101DC00010B502460020108A4FF2FF0318400B881E
:101DD0004C8823438C882343CC88234318431082A8
:101DE00010BD0021018041808180C180704721B1F8
:101DF000828942F40052828104E082894DF6FF73A9
:101E00001A4082817047F0B5034600240026002561
:101E1000002040F66A17B94200D100BF1846C1F34E
:101E2000421401F01F06012707FA06F5012C01D123
:101E30000C3004E0022C01D1103000E014301AB153
:101E400007682F43076002E00768AF430760F0BDF3
:101E50001AB1838A0B43838202E0838A8B43838295
:101E60007047028A4FF6F0731A400282028A0A43D0
:101E70000282704782894FF2FF731A408281828901
:101E80000A438281704721B1828942F00202828135
:101E900004E082894FF6FD731A4082817047028AFE
:101EA0004FF6DF731A400282028A0A4302827047A9
:101EB00021B1028A42F48042028204E0028A4BF697
:101EC000FF731A4002827047C1F308028280704794
:101ED00001468888C0F308007047818941F00101FC
:101EE00081817047028BD2B20283028B42EA0122C7
:101EF00002837047028B02F47F420283028B0A4303
:101F00000283704721B1828A42F02002828204E07B
:101F1000828A4FF6DF731A408282704721B1828A2B
:101F200042F01002828204E0828A4FF6EF731A4078
:101F30008282704721B1828A42F00802828204E0E4
:101F4000828A4FF6F7731A408282704721B18289E4
:101F500042F40042828103E08289C2F30E02828150
:101F6000704721B1828A42F40062828204E0828A50
:101F70004FF2FF731A4082827047828A4FF6FB73DA
:101F80001A408282828A0A438282704721B1828A01
:101F900042F00202828204E0828A4FF6FD731A4008
:101FA0008282704702460020B1F5007F00D100BF59
:101FB00013880B400BB1012000E00020704701F4B2
:101FC0000072B2F5007F00D100BFCA4302807047A3
:101FD00070B50246002400230025002040F66A1652
:101FE000B14200D100BFC1F3421501F01F03012629
:101FF00006FA03F3012D02D19689334006E0022D43
:1020000002D1168A334001E0968A33400C12012631
:1020100006FA04F41688344013B10CB1012000E034
:10202000002070BD10B50022002340F66A14A142C2
:1020300000D100BF0A1201249440A3B2DC43048003
:1020400010BD00000038014000440040004800403E
:10205000004C00400050004010B50446FA4884424D
:1020600008D101214015FEF715FD00216015FEF78E
:1020700011FD17E0F548844208D101210015FEF753
:1020800009FD00212015FEF705FD0BE0F048844214
:1020900008D10121C803FEF7FDFC00214FF40040E8
:1020A000FEF7F8FC10BD30B5024600200023506852
:1020B000E84C20400D790C6844EA05242043506028
:1020C0009068E54C2040D1E902542C434D7944EA14
:1020D000450420439060D06A20F470000C7C641E9C
:1020E000E4B2234340EA0350D06230BD00210160D6
:1020F000017141718160C16001210174704721B19A
:10210000826842F00102826003E0826822F00102EC
:102110008260704721B1826842F48072826003E07D
:10212000826822F480728260704710B50023CBB2BF
:102130001AB144681C43446002E044689C43446014
:1021400010BD816841F008018160704701460020A0
:102150008A6802F008020AB1012000E000207047FE
:10216000816841F0040181607047014600208A685F
:1021700002F004020AB1012000E00020704721B102
:10218000826842F4A002826003E0826822F4A00226
:1021900082607047014600208A6802F480020AB11A
:1021A000012000E00020704710B50A4600210023FE
:1021B000416821F46041531E41EA4331416010BD42
:1021C00021B1426842F40062426003E0426822F4B6
:1021D000006242607047F0B504460D4600200021C1
:1021E000092D11DDE068A5F10A0606EB4607072672
:1021F00006FA07F18843A5F10A0606EB460603FA3C
:1022000006F10843E0600CE0206905EB450707266E
:1022100006FA07F1884305EB450603FA06F1084381
:102220002061072A0FDA606B561E06EB86071F2611
:1022300006FA07F18843561E06EB860605FA06F1F4
:102240000843606322E00D2A0FDA206BD61F06EBED
:1022500086071F2606FA07F18843D61F06EB860677
:1022600005FA06F10843206310E0E06AA2F10D06CA
:1022700006EB86071F2606FA07F18843A2F10D0632
:1022800006EB860605FA06F10843E062F0BD21B1CF
:10229000826842F48012826003E0826822F4801235
:1022A000826070470146C86C80B2704766484C3007
:1022B0000068704721B1426842F48062426003E0E6
:1022C000426822F480624260704721B1426842F461
:1022D0008052426003E0426822F4805242607047BC
:1022E0000A460021816821F4E04111438160704772
:1022F00021B1826842F40042826003E0826822F4E5
:1023000000428260704721B1826842F4021282600A
:1023100003E0826822F402128260704701460020C6
:102320008A6802F400120AB1012000E00020704720
:10233000F0B504461546002000220026092911DDCB
:10234000E068A1F10A0707EB470C072707FA0CF230
:102350009043A1F10A0707EB470703FA07F210437E
:10236000E0600CE0206901EB410C072707FA0CF252
:10237000904301EB410703FA07F210432061A06B81
:10238000C0F30156EF1C06F1010CA7EB0C0707EB9D
:10239000870C1F2707FA0CF29043EF1C06F1010C83
:1023A000A7EB0C0707EB870701FA07F21043A063BE
:1023B000F0BD10B50A4600210023816B21F44011C5
:1023C000531E41EA0351816310BD08B500230093F9
:1023D0000090009B0B440093009B1A6008BD08B559
:1023E000024600200090009201F12800009B184452
:1023F00000900098006880B208BD0A46002141683C
:10240000164B194011434160704741628262704728
:102410000A460021416821F01F01114341607047C5
:1024200040B109490831096841F40001064A0832FF
:10243000116007E004490831096821F40001024AEB
:10244000083211607047000000240140002801405C
:10245000003C0140FFFEF0FFFDF7F1FFFFFD3FFFF5
:102460000246002013680B400BB1012000E0002061
:102470007047CA430260704770B5024600200023CF
:1024800000240B125568CEB205EA060415681D40FB
:1024900015B10CB1012000E0002070BD00220A122D
:1024A000D34303607047000001684FF6FE7211408D
:1024B00001600021016041608160C1608D498842F6
:1024C00008D18C490839496841F00F01894A083A16
:1024D00051608AE087491431884208D1854908391A
:1024E000496841F0F001834A083A51607DE0814932
:1024F0002831884208D17F490839496841F4706120
:102500007C4A083A516070E07A493C31884208D1EF
:1025100078490839496841F47041764A083A51606F
:1025200063E074495031884208D1724908394968DA
:1025300041F470216F4A083A516056E06D496431A8
:10254000884208D16B490839496841F47001694AE9
:10255000083A516049E067497831884208D16549B5
:102560000839496841F07061624A083A51603CE0BC
:102570006149884206D1011F096841F00F01021F1D
:10258000116032E05C491431884208D15A49091F70
:10259000096841F0F001584A121F116025E05649C0
:1025A0002831884208D15449091F096841F47061F3
:1025B000514A121F116018E04F493C31884208D13E
:1025C0004D49091F096841F470414B4A121F1160BF
:1025D0000BE049495031884207D14749091F096832
:1025E00041F47021444A121F1160704710B5002257
:1025F000026847F6F0739A430C6A8B6823430C69B0
:1026000023434C6923438C692343CC6923434C6A9D
:1026100023438C6A23431A430260CB6843600B68F0
:1026200083604B68C36010BD002101604160816020
:10263000C160016141618161C16101624162816288
:10264000704721B1026842F00102026004E00268B2
:102650004FF6FE731A40026070471AB103680B43CD
:10266000036002E003688B4303607047416070477A
:102670000146486880B2704701460020002201F000
:1026800080531BB11C4B083B1A6802E0194B083BF6
:102690001A6802EA01030BB1012000E00020704734
:1026A00000F0805119B11449091F086002E0114976
:1026B00008394860704701460020002201F080532D
:1026C0001BB10D4B083B1A6802E00A4B083B1A6825
:1026D00002EA01030BB1012000E00020704700F086
:1026E000805119B10449091F086002E00149083905
:1026F00048607047080002400804024070B500249A
:10270000002546E0002640E006EB860000EBC60010
:10271000FA4901EBC00030F81510F9480088643818
:10272000814230DD06EB860000EBC600F34901EB89
:10273000C00030F81500642825DD06EB860000EBAC
:10274000C60001EBC00030F815000012002101EBBB
:102750008401EC4A505406EB860000EBC600E749C2
:1027600001EBC00010F81500012101EB8401505469
:10277000022000EB840011460E54032000EB84007D
:102780000D54601C84B2701CC6B22C2EBCDB681CBD
:10279000C5B2342DB6DB2012002101EB8401D94AE9
:1027A0005054012101EB84015454022101EB8401B6
:1027B00088B201F00FFFD448006808B9012000E09A
:1027C0000020D14908600020CD49088070BD2DE966
:1027D000FC5F0020CD4908706FE00020CC490870F4
:1027E00062E04FF0000A53E0C848007800EB8A002E
:1027F000C84911F800B0C84931F81A0002F04AF986
:102800004FF08B41009002F095F8019002F060F9D2
:1028100080464FF06632C14B02F0CAF806460022ED
:10282000BF4B02F0C5F8044602F039F90BEB8B01FF
:1028300001EBCB01B14A02EBC101B54A127821F894
:1028400012000BEB8B0000EBCB00AC4901EBC0009E
:10285000AF49097830F81100A9490988884213DD89
:102860000BEB8B0000EBCB00A44901EBC000A849A7
:10287000097830F81100A2490880AA4880F800B011
:10288000A3480078A84908700AF1010000F0FF0A87
:10289000BAF10B0FA8DB0121A448FFF770FC9C489C
:1028A0000078401C9A49087099480078342898DBD1
:1028B00096480078401C9549087094480078042890
:1028C0008BDB01209A49087000209A490880BDE8F6
:1028D000FC9F08B501211D20FEF7C2F80121964892
:1028E000FDF7D3FE4FF4E050ADF8000010208DF856
:1028F000030003208DF8020069469048FDF7F4FDBF
:102900004FF40040ADF8000069468D48FDF7ECFD3E
:102910004FF47060ADF8000069468A48FDF7E4FDA9
:10292000E020ADF8000069468648FDF7DDFD08BDF2
:1029300008B501211020FEF793F82020ADF8000023
:1029400010208DF8030003208DF8020069467B48B3
:10295000FDF7CAFD20217948FDF773FE1020ADF880
:10296000000069467548FDF7BFFD10217348FDF76B
:1029700068FE08BD482001F0C3FB4FF4612000F061
:10298000ABF900F02EFC00F0CCFC00F05FFD00F095
:10299000B8FC00F08DFC6C496C4801F007F8FFF7BB
:1029A000C7FF01F050FFFFF794FF14E0FFF70FFFA0
:1029B0005F480078012804D1FFF7A0FE00205C49A1
:1029C00008705148001D006808B9012000E000208F
:1029D0004D49091D0860E9E770B5002655215C489E
:1029E000FFF772FA00BF40215948FFF7DBFA0128D0
:1029F000F9D111215648FFF767FA00BF402154482A
:102A0000FFF7D0FA0128F9D111215148FFF75CFAFC
:102A100000BF40214E48FFF7C5FA0128F9D1E12156
:102A20004B48FFF751FA00BF40214948FFF7BAFA77
:102A30000128F9D100242EE0002528E005EB8500CF
:102A400000EBC5002D4A02EBC00030F81400011263
:102A50003F48FFF739FA00BF40213D48FFF7A2FA8F
:102A60000128F9D105EB850000EBC500234A02EBF4
:102A7000C00010F814103648FFF726FA00BF4021B6
:102A80003348FFF78FFA0128F9D1681CC5B22C2D05
:102A9000D4DB601CC4B2342CCEDB00212C48FFF701
:102AA00013FA00BF40212A48FFF77CFA0128F9D128
:102AB000AA212748FFF708FA00BF40212448FFF762
:102AC00071FA0128F9D100212148FFF7FDF900BF73
:102AD00040211F48FFF766FA0128F9D1AA211C48B6
:102AE000FFF7F2F900BF40211948FFF75BFA012810
:102AF000F9D10548006868BB01202DE018010020CD
:102B0000AC0000206C370020900122422B000020F6
:102B10002C000020800000200E01002066660A4084
:102B200000408F40AE000020AF0000200024014094
:102B30002D0000202E000020000230000010014077
:102B400000080140000C014002010020FA000020B2
:102B500000380140FFE700203F49086070BD10B514
:102B60000220FFF7A8FD002874D03C4800883421DB
:102B700090FBF1F201FB12000D2190FBF1F03849BE
:102B80000870364800880D2190FBF1F201FB12001D
:102B90003449087031490988342291FBF2F0C11799
:102BA00000EB91718910A0EB81012F4A11702F4821
:102BB0002B490978405C2E4908602E48284909783D
:102BC000405C2D49C1F8A4012C4825490978405C96
:102BD0002749083108602A4821490978405C24497E
:102BE0000C31086027481F490978405C1A49203198
:102BF000086025481B490978405C17491C3108606A
:102C0000224818490978405C134918310860204867
:102C100014490978405C1F4908601F48114609782B
:102C2000405C13490C3908601C4811460978405C27
:102C30000F49083908601A4811460978405C0E4966
:102C4000C1F89C0105480088401C04490880022006
:102C5000FFF745FD10BD0000900122422E0000202C
:102C600028000020290000202A0000206400002005
:102C7000A081214268000020008021426C000020D9
:102C800070000020300000203D0000204A0000209D
:102C900057000020BC012142740000207800002071
:102CA0007C000020704700BFFEE700BFFEE700BFCA
:102CB000FEE700BFFEE7704770477047704710B5EA
:102CC00001218807FEF7AFFF28B100F097FC012132
:102CD0008807FEF7B9FF10BD10B586B00446012184
:102CE00044F20400FDF7BCFE4FF40070ADF8140090
:102CF00018208DF8170003208DF8160005A921482B
:102D0000FDF7F2FB4FF48060ADF8140004208DF85D
:102D1000170005A91B48FDF7E7FB01940020ADF85B
:102D20000800ADF80A00ADF80C00ADF810000C205A
:102D3000ADF80E0001A91448FEF7CDFF012112489D
:102D4000FFF755F806B010BD70B504460D46E1B268
:102D50000D48FFF7B9F800BF40210B48FFF722F9F3
:102D60000028F9D0204670BD10B5044600BF2021D0
:102D70000548FFF717F90028F9D00348FFF7A8F82E
:102D800010BD0000000801400038014010B5A0202F
:102D900000F03DFA08B9012010BD00F089F90020CB
:102DA000FAE72DE9F04106460F46154600F06BF9AB
:102DB000A02000F08BF900F0D0F900B125E0F8B2C6
:102DC00000F084F900F0C9F900B11EE000F05BF9F1
:102DD000A12000F07BF900F0C0F900B115E000245B
:102DE0000CE000F09BF93055681EA04202D000F0C4
:102DF000D0F901E000F0E3F9601C84B2AC42F0DBF2
:102E000000F056F90120BDE8F08100F051F90020F2
:102E1000F9E72DE9F04707468846914646460024E3
:102E20002BE014B106F00700E0B900F041F90025ED
:102E30000AE000F028F9A02000F048F900F08DF930
:102E400000B903E0681C85B2642DF2DB00BFB5F564
:102E50007A7F00D118E0F0B200F038F900F07DF987
:102E600000B111E0385D00F031F900F076F900B101
:102E70000AE0701C86B2601C84B24C45D1DB00F0C5
:102E800017F90120BDE8F08700F012F90020F9E7FA
:102E900010B5C0B0002404E0FF200DF80400601C51
:102EA00084B2FF2CF8DD4FF4807200216846FFF7F2
:102EB000B0FF20B936A002F093F840B010BD39A0A1
:102EC00002F08EF800BFF8E701B502E00098401E5E
:102ED000009000980028F9D108BD10B5ADF5007D2F
:102EE000FFF754FF20B934A002F07AF800BFFEE7E4
:102EF000002403E040A90C55601C84B2FF2CF9DDCE
:102F00004FF48072002140A8FFF783FF28B930A05A
:102F100002F066F80DF5007D10BD32A002F060F8F9
:102F20003548FFF7D1FF4FF4807200216846FFF764
:102F300038FF18B931A002F053F8EBE734A002F0E3
:102F40004FF800241CE01DF8040040A9095D8842E8
:102F500008D01DF8041035A002F042F835A002F0A8
:102F60003FF8D7E71DF804103BA002F039F804F051
:102F70000F000F2802D10AA002F032F8601C84B2C0
:102F8000FF2CE0DD36A002F02BF800BFFEE70000CA
:102F9000B2C1B3FD656570726F6DB3F6B4EDA3A1F8
:102FA0000D0A0000B2C1B3FD656570726F6DB3C9E3
:102FB000B9A6A3A10D0A0000C3BBD3D0BCECB2E2FA
:102FC000B5BDB4AED0D0454550524F4D210D0A008D
:102FD000D0B4656570726F6DB3F6B4EDA3A10D0A40
:102FE00000000000D0B4656570726F6DB3C9B9A6FA
:102FF000A3A10D0A00000000FFFF0F00B6C1656528
:1030000070726F6DB3F6B4EDA3A10D0A000000005D
:10301000B6C1656570726F6DB3C9B9A6A3ACCAFDC0
:10302000BEDDC8E7CFC2A3BA0D0A00003078253054
:1030300032582000B4EDCEF33A454550524F4DB6CC
:10304000C1B3F6D3EBD0B4C8EBB5C4CAFDBEDDB294
:10305000BBD2BBD6C2000000202530325800000091
:10306000656570726F6DB6C1D0B4B2E2CAD4B3C92F
:10307000B9A60D0A00000000002001E0411CC8B202
:103080000A28FBDB704710B58020694908604020A2
:103090000860FFF7F1FF80206549091D0860FFF710
:1030A000EBFF40206249091D0860FFF7E5FF10BDF6
:1030B00010B580205E49091D08604020091F086086
:1030C000FFF7DAFF80205A49086010BD70B504464A
:1030D000002520E004F0800018B1802054490860E9
:1030E00003E080205249091D0860FFF7C5FF40201A
:1030F0004F490860FFF7C0FF40204D49091D086097
:10310000072D02D18020091F08606006040EFFF71A
:10311000B3FF681CC5B2082DDCDB70BD70B50024A0
:10312000002516E06006040E402041490860FFF7C4
:10313000A3FF3F480838006800F0800008B1601C19
:10314000C4B240203A49091D0860FFF795FF681C8A
:10315000C5B2082DE6DB204670BD10B5802034498D
:103160000860FFF789FF402031490860FFF784FFBE
:103170002F480838006800F0800008B1012400E002
:10318000002440202A49091D0860FFF775FF2046EA
:1031900010BD10B580202649091D0860FFF76CFF9F
:1031A000402023490860FFF767FF40202049091DA0
:1031B0000860FFF761FF80201D49086010BD10B551
:1031C00080201B490860FFF757FF4020184908601E
:1031D000FFF752FF40201649091D0860FFF74CFF1A
:1031E00010BD08B501210820FDF73AFCC020ADF85C
:1031F000000003208DF8020014208DF803006946BA
:103200000B481038FDF770F9FFF752FF08BD70B595
:103210000446FFF7E6FFFFF736FF2046FFF756FFAD
:10322000FFF79BFF0546FFF743FF284670BD0000F0
:10323000100C014008B54FF4E060FDF787F81C2042
:103240008DF8000000208DF8010003208DF80200A9
:1032500001208DF803006846FDF77DF808BD0EB526
:1032600001210846FDF709FC4FF47A70ADF804001F
:103270004720ADF800000020ADF80600ADF80200D0
:1032800069464FF08040FDF7A9FE01218807FEF74F
:10329000C7FC012211469007FEF717FA01218807A3
:1032A000FEF7F8F900210120FDF7E7FB0EBD000055
:1032B00010B5E248E2490A68026089888180E149E4
:1032C0000968C0F80610E0490968C0F80A10DF492B
:1032D0000968C0F80E10DE490968C0F81210012014
:1032E000D64988760021D548C1760A3000F0FEF92B
:1032F000D2480E3000F0EAF9D048801D00F008FAFC
:1033000010BD10B5CD48CE490A6802608988818019
:1033100000F0F5F9CF48CA490A68026089888180BF
:1033200010BD00B587B001211020FDF799FB0121E8
:103330000820FDF795FB01218803FDF79EFB4FF464
:103340000050ADF8040003208DF8060018208DF819
:10335000070001A9C048FDF7C7F84FF48040ADF859
:10336000040001A9BC48FDF7BFF84FF40040ADF8D8
:10337000040001A9B848FDF7B7F84FF48050ADF844
:10338000040010208DF8070001A9B348FDF7ACF840
:103390000020ADF808004FF48270ADF80A0000205C
:1033A000ADF80C000220ADF80E000120ADF81000C1
:1033B0004002ADF812000820ADF814000020ADF86E
:1033C00016000720ADF8180002A9A448FDF7D2FBAB
:1033D0000121A248FDF773FC8020ADF80400032012
:1033E0008DF8060010208DF8070001A99C48FDF714
:1033F0007BF880219A48FDF724F94020ADF80400BD
:1034000003208DF8060048208DF8070001A9944894
:10341000FDF76AF807B000BD10B504462CB94FF4AB
:1034200080518D48FDF70FF905E0012C03D12103F0
:103430008948FDF706F910BD10B50020FFF7ECFF35
:1034400010BD10B50120FFF7E7FF10BD10B58021BA
:103450008348FDF7F8F8022000F095FE80218048AF
:10346000FDF7EFF84FF4C86000F066FE10BD10B530
:10347000044600BF02217948FDF7A5FC0028F9D0D9
:1034800021467648FDF74CFC00BF01217348FDF74B
:103490009AFC0028F9D07148FDF744FCC0B210BD79
:1034A00010B504462046FFF7E2FF10BD70B5044694
:1034B0000D46FFF7C1FFC4F30740FFF7F1FFC4F368
:1034C0000720FFF7EDFF04F0F801091DC8B2FFF770
:1034D000E7FF2846FFF7E4FFFFF7B3FF70BD70B5C5
:1034E00004460025FFF7A8FFC4F30740FFF7D8FF05
:1034F000C4F30720FFF7D4FF04F0F800FFF7D0FF74
:103500000020FFF7CDFF0546FFF79BFF284670BD63
:103510002DE9F04104460F461546002615B951A085
:1035200001F05EFDFFF788FFC4F30740FFF7B8FF27
:10353000C4F30720FFF7B4FF04F0F801091DC8B277
:10354000FFF7AEFF002604E0B85DFFF7A9FF701C8F
:1035500086B2AE42F8DBFFF774FF2846BDE8F08183
:103560002DE9F04104460F461546002615B93DA049
:1035700001F036FDFFF760FFC4F30740FFF790FF4F
:10358000C4F30720FFF78CFF04F0F800FFF788FF73
:10359000002605E00020FFF783FFB855701C86B2B7
:1035A000AE42F7DBFFF74DFF2846BDE8F08110B5CE
:1035B0000024122221462148FFF72BFC0A2000F0AC
:1035C000BBFD10BD10B5122200212C48FFF7E9FB0E
:1035D0000A2000F0D8FD10BD10B5FFF740FEFFF740
:1035E00029FE01210846FDF748FA10BD10B5FFF786
:1035F000F3FF10BD10B5FFF7EFFF10BD20480068C6
:10360000401C1F49086008460068B0F57A7F0BD35C
:10361000002008601B480068401C1A4908601A48CE
:103620000078401C18490870704770B517A001F069
:10363000D7FC002044682546A84770BDF81200203A
:10364000B0000020B6000020BA000020BE0000201C
:10365000C200002056130020000C0140003800403A
:1036600000100140556E65787065637465643220A2
:103670006C656E67746820300D0A0000141300201A
:10368000D0000020D4000020D800002020CFB5CDED
:10369000B3D6D8C6F4D6D0A1ADA1AD0D0A000000B6
:1036A00010B5044621460020FFF700FF10BD10B5FD
:1036B0008020FFF7F5FF10BD0146DC4830F811000F
:1036C00070470146DA4830F81100704710B50446DB
:1036D000042221469001FFF71BFF10BD10B50446E0
:1036E000042221469001FFF73BFF10BD10B50446B0
:1036F000042221464FF4A060FFF70AFF10BD10B569
:103700000446062221464FF41060FFF701FF10BD6A
:1037100010B50446042221464FF47060FFF7F8FE0E
:1037200010BD10B50446042221464FF4A060FFF7F7
:1037300017FF10BD10B50446062221464FF4106055
:10374000FFF70EFF10BD10B50446042221464FF4CA
:103750007060FFF705FF10BD10B54FF4A850FFF7DC
:10376000BEFE10BD10B50446210A4FF4C850FFF745
:103770009DFEE1B24FF4D050FFF798FE10BD10B59A
:10378000044621464FF4D850FFF790FE10BD70B5A7
:103790000446FFF7E1FF60EA0400C5B229464FF492
:1037A000A850FFF783FE70BD70B504460D46290A88
:1037B00041F2082202EB4410FFF778FEE9B241F231
:1037C000083202EB4410FFF771FE70BD70B504467D
:1037D0000D4641F2086101EB44102946FFF766FEF1
:1037E00070BD10B504464FF4027101EB4410FFF7B1
:1037F00076FE10BD70B504460D464FF4027101EB24
:1038000044102946FFF752FE70BD10B504464FF430
:10381000427101EB4410FFF762FE10BD70B5044623
:103820000025002600BF42F2080101EB4410FFF71B
:1038300056FE064642F2081101EB4410FFF74FFE18
:1038400000EB062086B27EB142F2080101EB441083
:10385000FFF745FE054642F2081101EB4410FFF761
:103860003EFE00EB052085B2B542DCD1284670BD96
:1038700070B504460025002600BF42F2086101EB46
:103880004410FFF72CFE064642F2087101EB44108B
:10389000FFF725FE00EB062086B27EB142F20861FA
:1038A00001EB4410FFF71BFE054642F2087101EBE5
:1038B0004410FFF714FE00EB052085B2B542DCD1C1
:1038C000284670BD2DE9F04104460F4616460025F6
:1038D000A8462EB9214657A001F082FBBDE8F08131
:1038E00042F2084101EB4410FFF7F9FD054642F2B0
:1038F000085101EB4410FFF7F2FD00EB052085B203
:10390000280200EB441000F11008324639464046C8
:10391000FFF7FEFDA81985B2290A42F2084202EB20
:103920004410FFF7C3FDE9B242F2085202EB441023
:10393000FFF7BCFD00BFD1E72DE9F04104460F467B
:1039400016460025A8462EB9214642A001F048FBA4
:10395000BDE8F08142F6080101EB4410FFF7BFFD1E
:10396000054642F6081101EB4410FFF7B8FD00EBE5
:10397000052085B2280200EB441000F118083246F9
:1039800039464046FFF7ECFDA81985B2290A42F6F0
:10399000080202EB4410FFF789FDE9B242F6081273
:1039A00002EB4410FFF782FD00BFD1E72DE9F041A3
:1039B00005460E460027B846002433E0295D41F64F
:1039C000087202EB4410FFF771FD315D41F60862A9
:1039D00002EB4410FFF76AFD0020154921F814009E
:1039E000124921F81400B7F5804F07DC285D4FF627
:1039F000FF7101EA80200E4921F81400B8F5804FCC
:103A000007DC305D4FF6FF7101EA8020074921F89D
:103A10001400074830F814000744044830F8140034
:103A20008044641C082CC9DBBDE8F081EA0000205A
:103A3000DA00002043483A20256420556E657870EE
:103A4000656374656431206C656E67746820300D41
:103A50000A00000043483A20256420556E657870BE
:103A6000656374656432206C656E67746820300D20
:103A70000A00000010B504464FF4847101EB4410B5
:103A80001021FFF713FD00BF4FF4847101EB4410C8
:103A9000FFF725FD0028F7D14FF4027101EB441028
:103AA000FF21FFF703FD10BD2DE9F04104460D464F
:103AB0001646984605F00F0001280FD005F00F00BC
:103AC00002280BD005F00F00032807D005F00F00E7
:103AD000042803D005F00F00052841D12046FFF748
:103AE000C9FF45EA0801082202EB4410FFF7DEFC9B
:103AF00076B1310A4FF4816202EB4410FFF7D6FC35
:103B0000F1B24FF4A16202EB4410FFF7CFFC15E0D5
:103B1000FE480088401CFD4908800A461288110AA8
:103B20004FF4816202EB4410FFF7C0FCF74A1178B2
:103B30004FF4A16202EB4410FFF7B8FC4FF484711C
:103B400001EB44100121FFF7B1FC00BF4FF4847179
:103B500001EB4410FFF7C3FC0028F7D1012700E078
:103B600000273846BDE8F08170B504464FF4427135
:103B700001EB4410FFF7B3FC132811D14FF484710B
:103B800001EB44100221FFF791FC00BF4FF4847158
:103B900001EB4410FFF7A3FC0028F7D1012500E05A
:103BA0000025284670BD2DE9F04105460C46164615
:103BB0002078FF2808D16078FF2805D1A078FF2859
:103BC00002D1E078FF2808D0207828B9607818B9A9
:103BD000A07808B9E07800B10EB900275CE00127B1
:103BE000217840F6084202EB4510FFF75FFC617850
:103BF00040F6085202EB4510FFF758FCA17840F65A
:103C0000086202EB4510FFF751FCE17840F60872BC
:103C100002EB4510FFF74AFC310A41F2080202EBC1
:103C20004510FFF743FCF1B241F2081202EB4510D8
:103C3000FFF73CFC4FF4847101EB45100421FFF7C2
:103C400035FC00BF4FF4847101EB4510FFF747FCD2
:103C50000028F7D117E04FF4427101EB4510FFF750
:103C60003EFC172800D116E02846FFF7BAFD00F009
:103C7000080040B14FF4027101EB45100821FFF735
:103C800015FC002707E04FF4427101EB4510FFF7E8
:103C900026FC1528DFD100BF3846BDE8F08110B5FD
:103CA00004464FF4847101EB44100821FFF7FEFB3A
:103CB00000BF4FF4847101EB4410FFF710FC0028A3
:103CC000F7D110BD2DE9F047044688461646002579
:103CD0000027A9462046FFF7F4FCB04204DA20464C
:103CE000FFF7EFFC074600E0374600BF2046FFF72E
:103CF00095FD81464FF4427101EB4410FFF7EFFB55
:103D00000546172D03D01C2D01D0002701E0B94531
:103D1000ECDB00BF3A4641462046FFF7D3FD4FF4A7
:103D2000847101EB44102021FFF7C0FB00BF4FF46A
:103D3000847101EB4410FFF7D2FB0028F7D113E0A8
:103D40004FF4427101EB4410FFF7C9FB0546172DF4
:103D50000AD01C2D08D06EA001F042F92046FFF7D2
:103D600089FE0020BDE8F0874FF4027101EB44109A
:103D7000FFF7B5FB00F010001028E1D14FF40271FD
:103D800001EB44101021FFF791FB4FF4027101EB9E
:103D900044101021FFF78AFB3846E3E72DE9F04194
:103DA00004460E4615460027002D15DD2A463146ED
:103DB0002046FFF7C1FD4FF4847101EB4410402110
:103DC000FFF774FB00BF4FF4847101EB4410FFF761
:103DD00086FB0028F7D12F463846BDE8F0812DE953
:103DE000F0470446894616461D46089F4FF00008D6
:103DF0002046FFF766FCB04204DA2046FFF761FC7C
:103E0000804600E0B046287828B9687818B9A878C4
:103E100008B9E87800B117B94FF0000863E02978D5
:103E200040F6084202EB4410FFF740FB697840F689
:103E3000085202EB4410FFF739FBA97840F60862FC
:103E400002EB4410FFF732FBE97840F6087202EB10
:103E50004410FFF72BFB390A41F2080202EB441031
:103E6000FFF724FBF9B241F2081202EB4410FFF70E
:103E70001DFB424649462046FFF724FD4FF484715E
:103E800001EB44102021FFF711FB00BF4FF48471B8
:103E900001EB4410FFF723FB0028F7D112E04FF4A9
:103EA000027101EB4410FFF71AFB00F0080048B163
:103EB0004FF4027101EB44101821FFF7F7FA0020CC
:103EC000BDE8F0874FF4027101EB4410FFF707FBE8
:103ED00000F010001028E2D14FF4027101EB441001
:103EE0001021FFF7E3FA4046EAE72DE9FC5F0546BB
:103EF0008A4691461E46DDF8308000270024A346FE
:103F0000B9F1000F71DD42F608010BE0C600002098
:103F100053454E445F4F4B2050726F626C656D216C
:103F2000210D0A0001EB4510FFF7D9FA044642F6CD
:103F3000081101EB4510FFF7D2FA00EB042084B220
:103F4000200200EB451000F1180B082101EB451091
:103F5000FFF7C5FA00F00700022804D0032845D077
:103F6000042878D178E0082269465846FFF7F8FA25
:103F700004F1080084B29DF8000030709DF8010043
:103F800070709DF80200B0709DF80300F0709DF80D
:103F90000400A8F800009DF8050098F8001000EB58
:103FA0000120A8F800009DF806709DF8070000EBBE
:103FB000072087B2200200EB451000F1180B3A46AB
:103FC00051465846FFF7CCFAE01984B2210A42F66E
:103FD000080202EB4510FFF769FAE1B242F6081257
:103FE00002EB4510FFF762FA6AE07AE006226946C2
:103FF0005846FFF7B5FAA01D84B29DF80000307056
:104000009DF8010070709DF80200B0709DF80300EB
:10401000F0709DF804709DF8050000EB072087B252
:10402000200200EB451000F1180B3A465146584665
:10403000FFF796FAE01984B2210A42F6080202EB71
:104040004510FFF733FAE1B242F6081202EB4510D1
:10405000FFF72CFA34E032E0022269465846FFF7B7
:104060007FFAA01C84B29DF800709DF8010000EB5F
:104070000720801E87B240F2EA50874204DD1AA072
:1040800000F0AEFF00BFFEE7200200EB451000F19C
:10409000180B3A4651465846FFF762FAE01984B2C7
:1040A000210A42F6080202EB4510FFF7FFF9E1B2E0
:1040B00042F6081202EB4510FFF7F8F900E000BFE6
:1040C00000BF4FF4847101EB45104021FFF7EEF97A
:1040D00000BF4FF4847101EB4510FFF700FA002890
:1040E000F7D13846BDE8FC9F646174615F6C656E12
:1040F000206F76657220313531340D0A00000000E2
:104100004FF0E021096921F004014FF0E022116134
:10411000C21700EB5272C2F3C702FE4B1A70194667
:10412000097801EB4102C2EBC1114FF6FF7202EABE
:10413000C101F94A118070470146F74A12884A4383
:104140004FF0E0235A6100229A6101221A6100BFF8
:104150004FF0E022106900F001021AB100F4803241
:10416000002AF5D000224FF0E0231A619A617047CF
:1041700010B5044604E04FF47A70FFF7DDFF641ECB
:10418000002CF8D110BD0146E24A12784A434FF0A4
:10419000E0235A6100229A6101221A6100BF4FF0A8
:1041A000E022106900F001021AB100F48032002A06
:1041B000F5D000224FF0E0231A619A617047014662
:1041C000302905DB392903DCA1F13000C0B270478A
:1041D000612905DB662903DCA1F15700C0B2F6E7CF
:1041E000412905DB462903DCA1F13700C0B2EEE727
:1041F0000846ECE730B502460B46002405E012F80D
:10420000010BFFF7DCFF04FB030410780028F6D154
:10421000A0B230BD30B502460B46002405E012F8CE
:10422000010BFFF7CCFF04FB030410780028F6D144
:10423000204630BD2DE9F04104460D461646701E5D
:10424000C7B220223146284600F012FB00BF0A20E8
:1042500094FBF0F100FB11403030C2B23846791EB9
:10426000CFB22A540A2094FBF0F080B2041EEEDC98
:10427000BDE8F0812DE9F04104460F469046264600
:104280000CB1207810B90020BDE8F0810BE0307847
:10429000FFF795FF0546002D03DBBD4201DA761CD2
:1042A00001E00020F0E730780028F0D1B9B22046D4
:1042B000FFF7A0FFC8F800000120E5E710B50B46A6
:1042C000002104E0445C9C4200D14254491C445CFF
:1042D000002CF7D110BD014600200A06100C40EA60
:1042E00011207047014600200806C1F3072240EA6A
:1042F0000240C1F3074240EA022040EA11607047E1
:104300002DE9F04781460E4617461D463146484680
:1043100000F0C0FA0446304600F0DAFA04443946A8
:10432000204600F0B7FA8246AAEB04001FFA80F894
:1043300042462146284600F0BFFA002005F8080052
:10434000BDE8F0872DE9F04188B006460F463146BA
:10435000684600F0C4FA6C4600251BE06FA12046B9
:1043600000F0C6FA04462078302809D16078782811
:1043700006D11021A01CFFF73DFF00F0FF0805E06B
:104380000A212046FFF736FF00F0FF0807F80580F6
:1043900000246D1C042DE1DB08B0BDE8F0811CB5E4
:1043A000044620215E4800F06AFAE0B2C4F3072117
:1043B000220EC4F30743CDE900105AA1584800F07B
:1043C0001FFE57481CBD1CB504461021584800F07C
:1043D00056FAE0B2C4F30721220EC4F30743CDE935
:1043E000001054A1524800F0EBFD51481CBDF0B53F
:1043F0008FB006460F4601AC314601A800F06FFAB7
:1044000000252AE045A1204600F072FA044614B9BE
:1044100000200FB0F0BD207830280AD160787828CD
:1044200007D10EAA1021A01CFFF724FF48B90020D5
:10443000EFE70EAA0A212046FFF71CFF08B900206B
:10444000E7E70E9878550E98002802DB0E98FF28B3
:1044500001DD0020DDE700246D1C042DD2DB0120EE
:10446000D7E700B503461846FFF735FF00BD00B596
:1044700003461846FFF736FF00BD10B50446204638
:10448000FFF7EFFF10BD10B504462046FFF7EFFF22
:1044900010BDF0B502460D46C5F34F0600240021BD
:1044A0000EE012F811304FF6FF7707EA03230127D9
:1044B00007EB4107D75D1F44BBB21C444F1CB9B288
:1044C000B142EEDB05F001071FB112F8113004EB29
:1044D0000324A0B200EB1447FF43B8B2F0BDF1B51E
:1044E00000246D4600BF30E004F5A060FEF7F7FF42
:1044F000295D00EA010704F57060FEF7F0FF06464B
:1045000004F5A060FEF7EBFF0640B7421CD0012087
:10451000F8BD00000A0100200C0100202E00000060
:104520002613002025642E25642E25642E25640084
:1045300046130020253033642E253033642E253079
:1045400033642E2530336400641C042CCCDB002043
:10455000F8BD000010B500240020FFF756F930B177
:1045600013280CD017280ED01C2831D12CE0202382
:104570003348028801210020FFF796FA28E0002046
:10458000FFF7F2FA24E00020FFF72BF900F001001A
:1045900018B101210020FFF72DF90020FFF768F97D
:1045A0000446002C0FDD224626490020FFF7F6FBCB
:1045B00000202449085524A000F012FD224621497C
:1045C0000020FFF77FFB03E00020FFF753FA00BF56
:1045D00000BF10BD10B504460120FFF716F930B139
:1045E000132810D0172815D01C2827D122E01448F2
:1045F00002880088401C124B1880202301210846A5
:10460000FFF752FA1AE01248028812490120FFF718
:10461000CAFA13E00120FFF7E4F800F0010018B136
:1046200001210846FFF7E6F822460B490120FFF773
:1046300049FB03E00120FFF71DFA00BF00BF10BDDA
:10464000C60000206C17002025730D0A0000000032
:10465000CC000020C80000206C37002008B50121E4
:104660001C20FCF7FDF9FF20ADF8000000208DF8BC
:10467000030069467848FBF737FF0320ADF80000D8
:1046800069467648FBF730FF0120ADF80000694627
:104690007348FBF729FF08BD00B58DB04FF4C0602B
:1046A000FBF754FE0B208DF8300000208DF8310010
:1046B00001208DF832008DF833000CA8FBF74BFE7B
:1046C00001210846FCF7BFF96648FDF7EDFE664894
:1046D000019066480290002003900B200490002077
:1046E00005908020069040000790800008902020D0
:1046F000099000020A9000200B9001A95948FDF78B
:1047000075FF01215748FDF79CFF01220221554802
:10471000FDF7A3FF0DB000BD00B585B00121480233
:10472000FCF79EF94FF40040FCF7FEF84E484C3879
:10473000FDF792FC0020009001208DF8040000207D
:104740008DF805004FF460200290002003900B20AC
:104750008DF81000694644484C38FDF7A4FC03234B
:104760000122002140484C38FDF735FD0323022289
:1047700001213D484C38FDF72EFD03231A46022146
:1047800039484C38FDF727FD0323042219463648E3
:104790004C38FDF720FD03230522042132484C3814
:1047A000FDF719FD0323062205212F484C38FDF79C
:1047B00012FD0323072206212B484C38FDF70BFD81
:1047C00003230822072128484C38FDF704FD032362
:1047D0000922082124484C38FDF7FDFC03230A2256
:1047E000092121484C38FDF7F6FC03230B220A214E
:1047F0001D484C38FDF7EFFC01211B484C38FDF7F4
:1048000089FC012118484C38FDF779FC16484C38D2
:10481000FDF797FC00BF14484C38FDF797FC0028C3
:10482000F9D111484C38FDF79BFC00BF0E484C38BD
:10483000FDF79BFC0028F9D101210B484C38FDF70E
:104840009EFC05B000BD10B5FFF708FFFFF724FF81
:10485000FFF762FF10BD000000080140000C01409E
:1048600000100140080002404C2401400E010020CD
:10487000D2B201E000F8012B491EFBD270470022A2
:10488000F6E710B513460A4604461946FFF7F0FF4F
:10489000204610BD30B505462A460B4612F8010BDE
:1048A00013F8014B08B1A042F8D01CB1002802D087
:1048B0006D1CF1E7284630BD10B5044604E00B78C6
:1048C00000F8013B03B1491C521EF8D2204610BD2E
:1048D000421C10F8011B0029FBD1801A70470346C7
:1048E00011F8012B00F8012B002AF9D11846704766
:1048F00070B50F4D00B92868002412E00A4602E0A6
:104900009E4203D0521C1378002BF9D1DAB2224315
:1049100005D02BB124B1002100F8011B04E00446AE
:10492000401C0678002EE9D12860204670BD0000AA
:104930001001002030B480EA010202F0004530F09E
:10494000004221F0004013D090B1C30DD40DC2F34A
:104950001601C0F31600E41A41F4000140F400020D
:104960007D34914201D3641C00E04900002C02DA3E
:1049700030BC002070474FF400000023914201D367
:10498000891A034340084FEA4101F7D151B19142DE
:1049900002D14FF0004105E002D24FF0010101E0E9
:1049A0006FF0010103EBC450284430BC00F0FAB8AA
:1049B0002DE9FE4F81EA030404F0004421F0004198
:1049C00000944FF0000B23F0004350EA01045ED046
:1049D00052EA03045BD0C3F30A54C1F30A552C44D2
:1049E000A4F2F3340194A0FB0254C1F3130141F487
:1049F0008011C3F3130343F4801301FB024400FB53
:104A0000034E840A970A44EA815447EA8357A4FB79
:104A1000076802958D0A05FB07854FEA932C04FB76
:104A20000C542705029D4FEA065847EA1637B5EBA6
:104A300008056EEB070C870E920E47EA811742EAD3
:104A40008312A7FB0201B6EB0B0164EB00042B0DF4
:104A500043EA0C335E1844EB1C50DA465146E7FB40
:104A60000201C5F313044FEA0B3343EA14534FEA30
:104A70000432019C43EA0603A4F10C040294009C56
:104A8000CDE900B400F0D4F803B0BDE8F08F002009
:104A90000146F9E796230022114600F08CB8C1F3D5
:104AA0000A5210B5C1F3130140F2FF3341F48011F3
:104AB0009A4201DA002010BD40F233439A42A2F23A
:104AC000334203DC524200F05DF810BD904010BD4F
:104AD00000F0004230F000400AD0C10D01F56071D5
:104AE000C0F3160042EA0151C20840071143704763
:104AF00000200146704730B50B46014600202022B9
:104B0000012409E021FA02F59D4205D303FA02F5DA
:104B1000491B04FA02F52844151EA2F10102F1DC3A
:104B200030BD2DE9F05F0546002092469B46884641
:104B30000646814640241BE0284641464746224619
:104B400000F020F853465A46C01A914110D311463E
:104B50001846224600F012FA2D1A67EB01084F465C
:104B600022460120002100F009FA17EB00094E410E
:104B7000201EA4F10104DFDC484631462A464346A4
:104B8000BDE8F09F202A04DB203A21FA02F0002140
:104B9000704721FA02F3D040C2F12002914008434D
:104BA000194670470029A8BF7047401C490008BF3C
:104BB00020F00100704710B4B0FA80FC00FA0CF04D
:104BC00050EA010404BF10BC704749B1CCF1200485
:104BD00021FA04F411FA0CF118BF01212143084312
:104BE000A3EB0C01CB1D4FEA00614FEA102042BF3E
:104BF000002010BC704700EBC35010440029A4BF34
:104C000010BC7047401C490008BF20F0010010BCD8
:104C1000704710B5141E73F1000408DA401C41F10E
:104C2000000192185B411A4301D120F0010010BD30
:104C30002DE9F04D92469B4611B1B1FA81F202E0A6
:104C4000B0FA80F22032904600F098F904460F4600
:104C500040EA0A0041EA0B0153465A46084313D082
:104C6000114653EA010019D0C8F140025046FFF73F
:104C700089FF05460E4650465946424600F07EF9E9
:104C8000084305D0012004E020463946BDE8F08DF8
:104C90000020054346EAE0762C4337430A98630533
:104CA000E40AA0EB08000022FD0A44EA47540A3057
:104CB00002D500200146E9E7010510196941DDE947
:104CC000084500196941BDE8F04DA2E72DE9FE4F06
:104CD000804681EA0300C00F0C46009021F000419D
:104CE00023F00045B8EB0200A94105D24046214619
:104CF00090461C460B46024623F00040104347D026
:104D0000270DC7F30A00C3F30A510290401A01901D
:104D100040286BDAC3F3130040F4801B00989246DE
:104D200020B10023D2EB030A63EB0B0B0198594629
:104D3000C0F14002504600F021F906460D465046AB
:104D40005946019A00F029F910EB0800614100244E
:104D500087EA115284EAE7731A4340D0009A62B39B
:104D6000019A012A4FEA075215DC001B61EB020190
:104D70004FF0004202EA0752CDE90042001C41F523
:104D8000801132462B46FFF753FF03B0BDE8F08F8A
:104D900040462146F9E7001B61EB0201001C41F58A
:104DA000801300185B412018A2F5001747EB0301A0
:104DB00040EAD570B6196D4111E06D084FEA36062C
:104DC00045EAC0754FEA0752001B61EB0201001C67
:104DD00041F5801149084FEA30000019514132462F
:104DE0002B4603B0BDE8F04FFFF713BF0098012238
:104DF00040000023D0EB020263EBE07300982146F1
:104E00004FEAE074B8EB000061EB0401E9E783F0DE
:104E100000435BE781F0004158E72DE9F04D81EA5E
:104E2000030404F0004B21F0004514464FF0000A43
:104E300023F0004150EA050220D054EA01021DD0BF
:104E4000C5F30A570246C5F31303C1F31300C1F3B8
:104E50000A5640F4801543F48013A7EB0608101B94
:104E6000D64608F2FD3873EB050002D308F10108BD
:104E700001E092185B41B8F1000F03DA002001460F
:104E8000BDE8F08D00204FF48011064684460EE008
:104E9000171B73EB050705D3121B63EB05030643D2
:104EA0004CEA010C49084FEA300092185B4150EA85
:104EB0000107EDD152EA030012D082EA040083EA2E
:104EC0000501084305D0101BAB4106D20122002387
:104ED00006E000224FF0004302E06FF001025310A1
:104EE0001AEB06004CEB085110EB0A0041EB0B01EA
:104EF000BDE8F04DFFF78DBEC1F30A52C1F31301B7
:104F000040F2FF3341F480119A4202DA0020014658
:104F1000704740F233439A42A2F2334202DC5242DB
:104F2000FFF730BE00F02AB830B5041E71F100045E
:104F300004DB4FF00044404264EB0101141E73F1A6
:104F4000000405DB1C464FF00043524263EB0403B0
:104F5000994208BF904230BD064C074D06E0E0681C
:104F600040F0010394E8070098471034AC42F6D3B0
:104F7000FBF7E2F8345D0008545D0008202A04DBEA
:104F8000203A00FA02F1002070479140C2F120035C
:104F900020FA03F3194390407047202A06DBCB1711
:104FA000203A41FA02F043EAE07306E041FA02F3E4
:104FB000D040C2F1200291400843194670470000DA
:104FC0000FB4054B10B503A9044A029800F000FB8A
:104FD00010BC5DF814FB0000492D000814010020EE
:104FE0000FB4054B10B503A9044A029800F0EEF87F
:104FF00010BC5DF814FB0000492D000814010020CE
:105000000FB4084B10B504A902AA039800F0DEF80B
:10501000044602A9002000F087FE204610BC5DF87F
:1050200014FB0000295D000802E008C8121F08C137
:10503000002AFAD170477047002001E001C1121F19
:10504000002AFBD1704700002DE9FF5F82B00021EC
:10505000DDE90430020DDDF840B0034318D044F61A
:105060001050A2F2FF3242431514119801281FD0AC
:10507000A5EB0B00401C5FEA000A4FF000064E4F04
:10508000DFF83891B046504615D5CAF1000413E058
:10509000119801244AA3012801D16FEA0B0102985B
:1050A000119AC0E90031C0E9024206B0BDE8F09FA4
:1050B000CBF10000DFE704460021404A491842EBEB
:1050C0000450CDE9001012E0E00707D032463B461D
:1050D00040464946FFF76CFC8046894632463B46CF
:1050E00010461946FFF764FC06460F466410002C74
:1050F000EAD1DDE90401DDE90023BAF1000F06DAA7
:10510000FFF756FC42464B46FFF752FC05E0FFF71F
:1051100084FE42464B46FFF780FE04460E460022C0
:10512000284BFFF701FF03D84FF0FF30014607E09F
:105130000022254B20463146FFF7C8FDFFF7DCFE75
:10514000102409E0002C0ADB0A220023FFF7E9FC07
:10515000039B30321A55641E50EA0102F2D1641CDE
:10516000039AC4F111031444119A012A03D00122B5
:1051700008430DD10AE0084304D000204FF0110B82
:10518000119072E7A3EB0B056D1E0DE05B4504DD8E
:105190004FF0000205F1010504E003DA4FF00002D0
:1051A000A5F10105002AECD002981199C0E902315D
:1051B000C0E9004579E70000000014400000F03F1E
:1051C000300000000000F0430000E03F2DE9FF4FF9
:1051D0008DB00F460546002606E025280BD0DDE9F8
:1051E0000F1290476D1C761C28780028F5D111B05D
:1051F0003046BDE8F08F0024A246A1460122E949CD
:1052000000E0044315F8013F203B02FA03F0084296
:10521000F7D128782A2810D06FF02F022878A0F133
:105220003001092914D80AEB8A0102EB410144F04C
:10523000020400EB010A6D1CF0E701CF5FEA000AEF
:1052400003D544F40054CAF1000A44F002046D1C72
:1052500028782E2817D115F8010F44F004042A28C5
:105260000ED06FF02F022878A0F1300109290AD85A
:1052700009EB890102EB410100EB01096D1CF2E72A
:1052800057F8049B6D1C28786C280FD006DC4C283E
:1052900017D068280DD06A2814D104E0742810D0E3
:1052A0007A280FD10DE044F400140AE044F480148D
:1052B00001E044F440146978814202D104F580147D
:1052C0006D1C6D1C28786E281ED00CDC632830D035
:1052D00004DC00288BD0582811D19FE0642867D0C7
:1052E00069280CD164E073282DD004DC6F2872D0BB
:1052F000702804D194E075286ED078286DD0DDE94F
:105300000F129047761C4BE1C4F30250022806D0DE
:10531000032809D0042801CF09D0066040E101CF5D
:10532000F117C0E900613BE101CF068038E106706A
:1053300036E117F8040B8DF8000000208DF801000D
:10534000EB46012003E057F804BB4FF0FF30610744
:105350004FF0000102D40DE008F1010188464945F3
:105360000FDA8045F8DB1BF808100029F4D108E0BB
:1053700008F1010188468142FADB1BF80810002978
:10538000F6D1DDE90F23AAEB08008146214600F0A3
:105390009DFC304400EB080604E0DDE90F121BF829
:1053A000010B9047B8F10108F7D221464846F2E0D8
:1053B0000A21C4F302524FF0000B0891022A04D0D4
:1053C00001CFC117032A09D00AE0FF1D27F0070704
:1053D000F7E8020108E02CE01EE01FE000B2C11770
:1053E000042A01D140B2C117021E71F1000206DA8F
:1053F0000023D0EB030063EB01012D2202E0220524
:1054000004D52B228DF82420012203E0E20701D0ED
:105410002022F7E7904653E00A210BE0102109E033
:1054200010214FF0000B44F004044FF008090891DC
:1054300003E008214FF0000B0891C4F30252022A46
:1054400004D001CF0021032A06D006E0FF1D27F07B
:105450000707F7E8020103E080B2042A00D1C0B2D6
:105460004FF0000822072BD52A78702A07D0DDF8E4
:1054700020C08CF0100C5CEA0B0C05D00EE0402232
:105480008DF82420012208E050EA010306D03023E1
:105490008DF824308DF8252002229046089B83F059
:1054A000080353EA0B030BD150EA010201D1620752
:1054B00006D530228DF824204FF00108A9F101090A
:1054C0002A78582A04D038A20B9208AA0A920BE034
:1054D0003AA2F9E75B46089AFFF723FB0B9B9B5C1C
:1054E0000A9A521E0A92137050EA0102F2D10A98E7
:1054F000ADEB000000F1200B600702D524F48034EE
:1055000001E04FF00109D94502DDA9EB0B0000E0F5
:10551000002000EB0B0141440890AAEB010AE003D4
:1055200006D4DDE90F232146504600F0CFFB0644A8
:105530004FF0000908E009A911F80900DDE90F1290
:10554000904709F10109761CC145F4DBE0030CD555
:10555000DDE90F232146504600F0B8FB064404E085
:10556000DDE90F1230209047761C0899481E0890FC
:105570000029F5DC08E00A980A990078491C0A918C
:10558000DDE90F129047761CBBF10001ABF1010B76
:10559000F1DC21465046DDE90F2300F073FB0644A1
:1055A0006D1C21E60928010030313233343536379D
:1055B000383961626364656600000000303132335F
:1055C00034353637383941424344454600000000FF
:1055D0002DE9FF4F95B09A46884606460025EEE134
:1055E000252877D100242746F94A0121039400E0B9
:1055F000044316F8013F203B01FA03F01042F7D1B3
:1056000030782A2811D06FF02F033078A0F13002C3
:10561000092A16D8039A44F0020402EB820203EB33
:1056200042021044761C0390EFE758F8042B0392D3
:10563000002A03DA504244F40054039044F0020478
:10564000761C30782E2816D116F8010F44F0040489
:105650002A280DD06FF02F023078A0F13003092BEB
:1056600009D807EB870302EB4303C718761CF3E75F
:1056700058F8047B761C30786C280FD006DC4C2858
:1056800017D068280DD06A2814D104E0742810D0EF
:105690007A280FD10DE044F400140AE044F4801499
:1056A00001E044F440147278824202D104F580147F
:1056B000761C761C307866280BD013DC582877D0FF
:1056C00009DC002875D04528F6D04628F4D04728B4
:1056D0001AD193E118E0632835D0642879D0652881
:1056E00012D18BE1702873D008DC6728F1D06928CB
:1056F0006FD06E280DD06F2806D1ACE073282CD067
:10570000752874D0782853D05246179990476D1C4D
:1057100054E1C4F30250022809D003280DD0D8F870
:10572000001004280DD00D6008F1040846E1D8F8F7
:105730000010EA17C1E90052F6E7D8F800100D8012
:10574000F2E70D70F0E718F8041B8DF80010002048
:105750008DF80100EB46012003E058F804BB4FF040
:10576000FF3061074FF0000102D40DE009F10101A3
:105770008946B9420FDA8145F8DB1BF80910002988
:10578000F4D108E009F1010189468142FADB1BF8F6
:1057900009100029F6D103985346A0EB09072146CA
:1057A0003846179A00F0A9FA284400EB090507E0EB
:1057B00044E008E10DE01BF8010B524617999047B1
:1057C000B9F10109F7D2534621463846179AF2E05B
:1057D00039E00A21C4F302524FF0000B0091022A73
:1057E00006D058F8040BC117032A09D00AE023E0B9
:1057F00008F1070020F00702F2E80201904605E0F8
:1058000000B2C117042A01D140B2C117002906DA3B
:105810000A460021404261EB02012D2202E02205EE
:1058200004D52B228DF80420012203E0E20701D0E9
:105830002022F7E7914657E00A2100E010214FF0BF
:10584000000B00910BE010214FF0000B44F004041A
:105850000827009103E008204FF0000B0090C4F3EC
:105860000252022A05D058F8040B0021032A08D05E
:1058700008E008F1070020F00702F2E80201904674
:1058800003E080B2042A00D1C0B24FF00009220721
:105890002AD53278702A07D0DDF800C08CF0100CC1
:1058A0005CEA0B0C05D00EE040228DF804200122AA
:1058B00008E050EA010306D030238DF804308DF85B
:1058C000052002229146009B83F0080353EA0B0354
:1058D0000AD150EA010201D1620705D530228DF8C4
:1058E00004204FF001097F1E3278582A04D039A2D3
:1058F0000C920CAA02920BE03BA2F9E75B46009ADD
:10590000FFF70FF90C9B9B5C029A521E02921370D8
:1059100050EA0102F2D1029804A9081A00F1200B02
:10592000600702D524F4803400E001275F4502DDE2
:10593000A7EB0B0000E0002000EB0B0100900398A8
:105940004944401A0390E00306D453462146179A6F
:10595000039800F0D2F90544002706E001A852465A
:10596000C05D179990476D1C7F1C4F45F6DBE00327
:105970000CD553462146179A039800F0BEF905440A
:1059800004E030205246179990476D1C0099481E3C
:1059900000900029F5DC08E0029802995246007850
:1059A000491C0291179990476D1CBBF10001ABF1A6
:1059B000010BF1DC5BE100F077F90544761C3078EF
:1059C00000287FF40DAE19B02846BDE8F08F000026
:1059D00009280100303132333435363738396162C5
:1059E0006364656600000000303132333435363789
:1059F000383941424344454600000000600700D466
:105A0000062708F1070020F00700F0E8022380468F
:105A100003F0004C5FEA0C0001D097A009E02005DC
:105A200001D596A005E0E00701D095A001E0AFF216
:105A30004C001390307823F0004365280CD006DC2E
:105A4000452809D046281DD047287FD13BE066284D
:105A500018D067287AD136E00021112F01DB112000
:105A600000E0781CCDE9000104A90CA8FFF7ECFACE
:105A7000DDE90D010C9A4FF0000B07F101091092BE
:105A800000914EE04FF000400097CDE9011004A9CD
:105A90000CA8FFF7D9FADDE90D020C9B0F994FF026
:105AA000000B91461093009211B9791C00EB01098B
:105AB000B7EB090003D4C0F1FF3B07F10109A9EBE3
:105AC0000700019042E0012F00DA01270021112F89
:105AD00001DD112000E03846CDE9000104A90CA841
